{
    "_format": "hh-sol-artifact-1",
    "contractName": "mintNfts",
    "sourceName": "contracts/mintNfts.sol",
    "abi": [
        {
            "inputs": [],
            "stateMutability": "nonpayable",
            "type": "constructor"
        },
        {
            "anonymous": false,
            "inputs": [
                {
                    "indexed": true,
                    "internalType": "address",
                    "name": "owner",
                    "type": "address"
                },
                {
                    "indexed": true,
                    "internalType": "address",
                    "name": "approved",
                    "type": "address"
                },
                {
                    "indexed": true,
                    "internalType": "uint256",
                    "name": "tokenId",
                    "type": "uint256"
                }
            ],
            "name": "Approval",
            "type": "event"
        },
        {
            "anonymous": false,
            "inputs": [
                {
                    "indexed": true,
                    "internalType": "address",
                    "name": "owner",
                    "type": "address"
                },
                {
                    "indexed": true,
                    "internalType": "address",
                    "name": "operator",
                    "type": "address"
                },
                {
                    "indexed": false,
                    "internalType": "bool",
                    "name": "approved",
                    "type": "bool"
                }
            ],
            "name": "ApprovalForAll",
            "type": "event"
        },
        {
            "anonymous": false,
            "inputs": [
                {
                    "indexed": true,
                    "internalType": "address",
                    "name": "previousOwner",
                    "type": "address"
                },
                {
                    "indexed": true,
                    "internalType": "address",
                    "name": "newOwner",
                    "type": "address"
                }
            ],
            "name": "OwnershipTransferred",
            "type": "event"
        },
        {
            "anonymous": false,
            "inputs": [
                {
                    "indexed": true,
                    "internalType": "address",
                    "name": "from",
                    "type": "address"
                },
                {
                    "indexed": true,
                    "internalType": "address",
                    "name": "to",
                    "type": "address"
                },
                {
                    "indexed": true,
                    "internalType": "uint256",
                    "name": "tokenId",
                    "type": "uint256"
                }
            ],
            "name": "Transfer",
            "type": "event"
        },
        {
            "inputs": [
                {
                    "internalType": "address",
                    "name": "to",
                    "type": "address"
                },
                {
                    "internalType": "uint256",
                    "name": "tokenId",
                    "type": "uint256"
                }
            ],
            "name": "approve",
            "outputs": [],
            "stateMutability": "nonpayable",
            "type": "function"
        },
        {
            "inputs": [
                {
                    "internalType": "address",
                    "name": "owner",
                    "type": "address"
                }
            ],
            "name": "balanceOf",
            "outputs": [
                {
                    "internalType": "uint256",
                    "name": "",
                    "type": "uint256"
                }
            ],
            "stateMutability": "view",
            "type": "function"
        },
        {
            "inputs": [
                {
                    "internalType": "uint256",
                    "name": "tokenId",
                    "type": "uint256"
                }
            ],
            "name": "getApproved",
            "outputs": [
                {
                    "internalType": "address",
                    "name": "",
                    "type": "address"
                }
            ],
            "stateMutability": "view",
            "type": "function"
        },
        {
            "inputs": [
                {
                    "internalType": "address",
                    "name": "owner",
                    "type": "address"
                },
                {
                    "internalType": "address",
                    "name": "operator",
                    "type": "address"
                }
            ],
            "name": "isApprovedForAll",
            "outputs": [
                {
                    "internalType": "bool",
                    "name": "",
                    "type": "bool"
                }
            ],
            "stateMutability": "view",
            "type": "function"
        },
        {
            "inputs": [],
            "name": "name",
            "outputs": [
                {
                    "internalType": "string",
                    "name": "",
                    "type": "string"
                }
            ],
            "stateMutability": "view",
            "type": "function"
        },
        {
            "inputs": [],
            "name": "owner",
            "outputs": [
                {
                    "internalType": "address",
                    "name": "",
                    "type": "address"
                }
            ],
            "stateMutability": "view",
            "type": "function"
        },
        {
            "inputs": [
                {
                    "internalType": "uint256",
                    "name": "tokenId",
                    "type": "uint256"
                }
            ],
            "name": "ownerOf",
            "outputs": [
                {
                    "internalType": "address",
                    "name": "",
                    "type": "address"
                }
            ],
            "stateMutability": "view",
            "type": "function"
        },
        {
            "inputs": [],
            "name": "renounceOwnership",
            "outputs": [],
            "stateMutability": "nonpayable",
            "type": "function"
        },
        {
            "inputs": [
                {
                    "internalType": "string",
                    "name": "uri",
                    "type": "string"
                }
            ],
            "name": "safeMint",
            "outputs": [],
            "stateMutability": "nonpayable",
            "type": "function"
        },
        {
            "inputs": [
                {
                    "internalType": "address",
                    "name": "from",
                    "type": "address"
                },
                {
                    "internalType": "address",
                    "name": "to",
                    "type": "address"
                },
                {
                    "internalType": "uint256",
                    "name": "tokenId",
                    "type": "uint256"
                }
            ],
            "name": "safeTransferFrom",
            "outputs": [],
            "stateMutability": "nonpayable",
            "type": "function"
        },
        {
            "inputs": [
                {
                    "internalType": "address",
                    "name": "from",
                    "type": "address"
                },
                {
                    "internalType": "address",
                    "name": "to",
                    "type": "address"
                },
                {
                    "internalType": "uint256",
                    "name": "tokenId",
                    "type": "uint256"
                },
                {
                    "internalType": "bytes",
                    "name": "_data",
                    "type": "bytes"
                }
            ],
            "name": "safeTransferFrom",
            "outputs": [],
            "stateMutability": "nonpayable",
            "type": "function"
        },
        {
            "inputs": [
                {
                    "internalType": "address",
                    "name": "operator",
                    "type": "address"
                },
                {
                    "internalType": "bool",
                    "name": "approved",
                    "type": "bool"
                }
            ],
            "name": "setApprovalForAll",
            "outputs": [],
            "stateMutability": "nonpayable",
            "type": "function"
        },
        {
            "inputs": [
                {
                    "internalType": "bytes4",
                    "name": "interfaceId",
                    "type": "bytes4"
                }
            ],
            "name": "supportsInterface",
            "outputs": [
                {
                    "internalType": "bool",
                    "name": "",
                    "type": "bool"
                }
            ],
            "stateMutability": "view",
            "type": "function"
        },
        {
            "inputs": [],
            "name": "symbol",
            "outputs": [
                {
                    "internalType": "string",
                    "name": "",
                    "type": "string"
                }
            ],
            "stateMutability": "view",
            "type": "function"
        },
        {
            "inputs": [
                {
                    "internalType": "uint256",
                    "name": "tokenId",
                    "type": "uint256"
                }
            ],
            "name": "tokenURI",
            "outputs": [
                {
                    "internalType": "string",
                    "name": "",
                    "type": "string"
                }
            ],
            "stateMutability": "view",
            "type": "function"
        },
        {
            "inputs": [
                {
                    "internalType": "address",
                    "name": "from",
                    "type": "address"
                },
                {
                    "internalType": "address",
                    "name": "to",
                    "type": "address"
                },
                {
                    "internalType": "uint256",
                    "name": "tokenId",
                    "type": "uint256"
                }
            ],
            "name": "transferFrom",
            "outputs": [],
            "stateMutability": "nonpayable",
            "type": "function"
        },
        {
            "inputs": [
                {
                    "internalType": "address",
                    "name": "newOwner",
                    "type": "address"
                }
            ],
            "name": "transferOwnership",
            "outputs": [],
            "stateMutability": "nonpayable",
            "type": "function"
        }
    ],
    "bytecode": "0x60806040523480156200001157600080fd5b506040518060400160405280600981526020017f4372656174654e465400000000000000000000000000000000000000000000008152506040518060400160405280600481526020017f434e465400000000000000000000000000000000000000000000000000000000815250816000908051906020019062000096929190620001a6565b508060019080519060200190620000af929190620001a6565b505050620000d2620000c6620000d860201b60201c565b620000e060201b60201c565b620002bb565b600033905090565b6000600760009054906101000a900473ffffffffffffffffffffffffffffffffffffffff16905081600760006101000a81548173ffffffffffffffffffffffffffffffffffffffff021916908373ffffffffffffffffffffffffffffffffffffffff1602179055508173ffffffffffffffffffffffffffffffffffffffff168173ffffffffffffffffffffffffffffffffffffffff167f8be0079c531659141344cd1fd0a4f28419497f9722a3daafe3b4186f6b6457e060405160405180910390a35050565b828054620001b49062000256565b90600052602060002090601f016020900481019282620001d8576000855562000224565b82601f10620001f357805160ff191683800117855562000224565b8280016001018555821562000224579182015b828111156200022357825182559160200191906001019062000206565b5b50905062000233919062000237565b5090565b5b808211156200025257600081600090555060010162000238565b5090565b600060028204905060018216806200026f57607f821691505b602082108114156200028657620002856200028c565b5b50919050565b7f4e487b7100000000000000000000000000000000000000000000000000000000600052602260045260246000fd5b61306b80620002cb6000396000f3fe608060405234801561001057600080fd5b506004361061010b5760003560e01c806370a08231116100a2578063a22cb46511610071578063a22cb465146102a4578063b88d4fde146102c0578063c87b56dd146102dc578063e985e9c51461030c578063f2fde38b1461033c5761010b565b806370a082311461022e578063715018a61461025e5780638da5cb5b1461026857806395d89b41146102865761010b565b806323b872dd116100de57806323b872dd146101aa57806342842e0e146101c65780636352211e146101e2578063695850fb146102125761010b565b806301ffc9a71461011057806306fdde0314610140578063081812fc1461015e578063095ea7b31461018e575b600080fd5b61012a60048036038101906101259190611fd9565b610358565b6040516101379190612466565b60405180910390f35b61014861043a565b6040516101559190612481565b60405180910390f35b6101786004803603810190610173919061206c565b6104cc565b60405161018591906123ff565b60405180910390f35b6101a860048036038101906101a39190611f9d565b610551565b005b6101c460048036038101906101bf9190611e97565b610669565b005b6101e060048036038101906101db9190611e97565b6106c9565b005b6101fc60048036038101906101f7919061206c565b6106e9565b60405161020991906123ff565b60405180910390f35b61022c6004803603810190610227919061202b565b61079b565b005b61024860048036038101906102439190611e32565b610847565b60405161025591906126e3565b60405180910390f35b6102666108ff565b005b610270610987565b60405161027d91906123ff565b60405180910390f35b61028e6109b1565b60405161029b9190612481565b60405180910390f35b6102be60048036038101906102b99190611f61565b610a43565b005b6102da60048036038101906102d59190611ee6565b610a59565b005b6102f660048036038101906102f1919061206c565b610abb565b6040516103039190612481565b60405180910390f35b61032660048036038101906103219190611e5b565b610acd565b6040516103339190612466565b60405180910390f35b61035660048036038101906103519190611e32565b610b61565b005b60007f80ac58cd000000000000000000000000000000000000000000000000000000007bffffffffffffffffffffffffffffffffffffffffffffffffffffffff1916827bffffffffffffffffffffffffffffffffffffffffffffffffffffffff1916148061042357507f5b5e139f000000000000000000000000000000000000000000000000000000007bffffffffffffffffffffffffffffffffffffffffffffffffffffffff1916827bffffffffffffffffffffffffffffffffffffffffffffffffffffffff1916145b80610433575061043282610c59565b5b9050919050565b60606000805461044990612939565b80601f016020809104026020016040519081016040528092919081815260200182805461047590612939565b80156104c25780601f10610497576101008083540402835291602001916104c2565b820191906000526020600020905b8154815290600101906020018083116104a557829003601f168201915b5050505050905090565b60006104d782610cc3565b610516576040517f08c379a000000000000000000000000000000000000000000000000000000000815260040161050d90612643565b60405180910390fd5b6004600083815260200190815260200160002060009054906101000a900473ffffffffffffffffffffffffffffffffffffffff169050919050565b600061055c826106e9565b90508073ffffffffffffffffffffffffffffffffffffffff168373ffffffffffffffffffffffffffffffffffffffff1614156105cd576040517f08c379a00000000000000000000000000000000000000000000000000000000081526004016105c4906126a3565b60405180910390fd5b8073ffffffffffffffffffffffffffffffffffffffff166105ec610d2f565b73ffffffffffffffffffffffffffffffffffffffff16148061061b575061061a81610615610d2f565b610acd565b5b61065a576040517f08c379a000000000000000000000000000000000000000000000000000000000815260040161065190612583565b60405180910390fd5b6106648383610d37565b505050565b61067a610674610d2f565b82610df0565b6106b9576040517f08c379a00000000000000000000000000000000000000000000000000000000081526004016106b0906126c3565b60405180910390fd5b6106c4838383610ece565b505050565b6106e483838360405180602001604052806000815250610a59565b505050565b6000806002600084815260200190815260200160002060009054906101000a900473ffffffffffffffffffffffffffffffffffffffff169050600073ffffffffffffffffffffffffffffffffffffffff168173ffffffffffffffffffffffffffffffffffffffff161415610792576040517f08c379a0000000000000000000000000000000000000000000000000000000008152600401610789906125c3565b60405180910390fd5b80915050919050565b6107a3610d2f565b73ffffffffffffffffffffffffffffffffffffffff166107c1610987565b73ffffffffffffffffffffffffffffffffffffffff1614610817576040517f08c379a000000000000000000000000000000000000000000000000000000000815260040161080e90612663565b60405180910390fd5b60006108236008611135565b905061082f6008611143565b6108393382611159565b6108438183611177565b5050565b60008073ffffffffffffffffffffffffffffffffffffffff168273ffffffffffffffffffffffffffffffffffffffff1614156108b8576040517f08c379a00000000000000000000000000000000000000000000000000000000081526004016108af906125a3565b60405180910390fd5b600360008373ffffffffffffffffffffffffffffffffffffffff1673ffffffffffffffffffffffffffffffffffffffff168152602001908152602001600020549050919050565b610907610d2f565b73ffffffffffffffffffffffffffffffffffffffff16610925610987565b73ffffffffffffffffffffffffffffffffffffffff161461097b576040517f08c379a000000000000000000000000000000000000000000000000000000000815260040161097290612663565b60405180910390fd5b61098560006111eb565b565b6000600760009054906101000a900473ffffffffffffffffffffffffffffffffffffffff16905090565b6060600180546109c090612939565b80601f01602080910402602001604051908101604052809291908181526020018280546109ec90612939565b8015610a395780601f10610a0e57610100808354040283529160200191610a39565b820191906000526020600020905b815481529060010190602001808311610a1c57829003601f168201915b5050505050905090565b610a55610a4e610d2f565b83836112b1565b5050565b610a6a610a64610d2f565b83610df0565b610aa9576040517f08c379a0000000000000000000000000000000000000000000000000000000008152600401610aa0906126c3565b60405180910390fd5b610ab58484848461141e565b50505050565b6060610ac68261147a565b9050919050565b6000600560008473ffffffffffffffffffffffffffffffffffffffff1673ffffffffffffffffffffffffffffffffffffffff16815260200190815260200160002060008373ffffffffffffffffffffffffffffffffffffffff1673ffffffffffffffffffffffffffffffffffffffff16815260200190815260200160002060009054906101000a900460ff16905092915050565b610b69610d2f565b73ffffffffffffffffffffffffffffffffffffffff16610b87610987565b73ffffffffffffffffffffffffffffffffffffffff1614610bdd576040517f08c379a0000000000000000000000000000000000000000000000000000000008152600401610bd490612663565b60405180910390fd5b600073ffffffffffffffffffffffffffffffffffffffff168173ffffffffffffffffffffffffffffffffffffffff161415610c4d576040517f08c379a0000000000000000000000000000000000000000000000000000000008152600401610c44906124c3565b60405180910390fd5b610c56816111eb565b50565b60007f01ffc9a7000000000000000000000000000000000000000000000000000000007bffffffffffffffffffffffffffffffffffffffffffffffffffffffff1916827bffffffffffffffffffffffffffffffffffffffffffffffffffffffff1916149050919050565b60008073ffffffffffffffffffffffffffffffffffffffff166002600084815260200190815260200160002060009054906101000a900473ffffffffffffffffffffffffffffffffffffffff1673ffffffffffffffffffffffffffffffffffffffff1614159050919050565b600033905090565b816004600083815260200190815260200160002060006101000a81548173ffffffffffffffffffffffffffffffffffffffff021916908373ffffffffffffffffffffffffffffffffffffffff160217905550808273ffffffffffffffffffffffffffffffffffffffff16610daa836106e9565b73ffffffffffffffffffffffffffffffffffffffff167f8c5be1e5ebec7d5bd14f71427d1e84f3dd0314c0f7b2291e5b200ac8c7c3b92560405160405180910390a45050565b6000610dfb82610cc3565b610e3a576040517f08c379a0000000000000000000000000000000000000000000000000000000008152600401610e3190612563565b60405180910390fd5b6000610e45836106e9565b90508073ffffffffffffffffffffffffffffffffffffffff168473ffffffffffffffffffffffffffffffffffffffff161480610eb457508373ffffffffffffffffffffffffffffffffffffffff16610e9c846104cc565b73ffffffffffffffffffffffffffffffffffffffff16145b80610ec55750610ec48185610acd565b5b91505092915050565b8273ffffffffffffffffffffffffffffffffffffffff16610eee826106e9565b73ffffffffffffffffffffffffffffffffffffffff1614610f44576040517f08c379a0000000000000000000000000000000000000000000000000000000008152600401610f3b906124e3565b60405180910390fd5b600073ffffffffffffffffffffffffffffffffffffffff168273ffffffffffffffffffffffffffffffffffffffff161415610fb4576040517f08c379a0000000000000000000000000000000000000000000000000000000008152600401610fab90612523565b60405180910390fd5b610fbf8383836115cc565b610fca600082610d37565b6001600360008573ffffffffffffffffffffffffffffffffffffffff1673ffffffffffffffffffffffffffffffffffffffff168152602001908152602001600020600082825461101a919061284f565b925050819055506001600360008473ffffffffffffffffffffffffffffffffffffffff1673ffffffffffffffffffffffffffffffffffffffff168152602001908152602001600020600082825461107191906127c8565b92505081905550816002600083815260200190815260200160002060006101000a81548173ffffffffffffffffffffffffffffffffffffffff021916908373ffffffffffffffffffffffffffffffffffffffff160217905550808273ffffffffffffffffffffffffffffffffffffffff168473ffffffffffffffffffffffffffffffffffffffff167fddf252ad1be2c89b69c2b068fc378daa952ba7f163c4a11628f55a4df523b3ef60405160405180910390a46111308383836115d1565b505050565b600081600001549050919050565b6001816000016000828254019250508190555050565b6111738282604051806020016040528060008152506115d6565b5050565b61118082610cc3565b6111bf576040517f08c379a00000000000000000000000000000000000000000000000000000000081526004016111b6906125e3565b60405180910390fd5b806006600084815260200190815260200160002090805190602001906111e6929190611c56565b505050565b6000600760009054906101000a900473ffffffffffffffffffffffffffffffffffffffff16905081600760006101000a81548173ffffffffffffffffffffffffffffffffffffffff021916908373ffffffffffffffffffffffffffffffffffffffff1602179055508173ffffffffffffffffffffffffffffffffffffffff168173ffffffffffffffffffffffffffffffffffffffff167f8be0079c531659141344cd1fd0a4f28419497f9722a3daafe3b4186f6b6457e060405160405180910390a35050565b8173ffffffffffffffffffffffffffffffffffffffff168373ffffffffffffffffffffffffffffffffffffffff161415611320576040517f08c379a000000000000000000000000000000000000000000000000000000000815260040161131790612543565b60405180910390fd5b80600560008573ffffffffffffffffffffffffffffffffffffffff1673ffffffffffffffffffffffffffffffffffffffff16815260200190815260200160002060008473ffffffffffffffffffffffffffffffffffffffff1673ffffffffffffffffffffffffffffffffffffffff16815260200190815260200160002060006101000a81548160ff0219169083151502179055508173ffffffffffffffffffffffffffffffffffffffff168373ffffffffffffffffffffffffffffffffffffffff167f17307eab39ab6107e8899845ad3d59bd9653f200f220920489ca2b5937696c31836040516114119190612466565b60405180910390a3505050565b611429848484610ece565b61143584848484611631565b611474576040517f08c379a000000000000000000000000000000000000000000000000000000000815260040161146b906124a3565b60405180910390fd5b50505050565b606061148582610cc3565b6114c4576040517f08c379a00000000000000000000000000000000000000000000000000000000081526004016114bb90612623565b60405180910390fd5b60006006600084815260200190815260200160002080546114e490612939565b80601f016020809104026020016040519081016040528092919081815260200182805461151090612939565b801561155d5780601f106115325761010080835404028352916020019161155d565b820191906000526020600020905b81548152906001019060200180831161154057829003601f168201915b50505050509050600061156e6117c8565b90506000815114156115845781925050506115c7565b6000825111156115b95780826040516020016115a19291906123db565b604051602081830303815290604052925050506115c7565b6115c284611805565b925050505b919050565b505050565b505050565b6115e083836118ac565b6115ed6000848484611631565b61162c576040517f08c379a0000000000000000000000000000000000000000000000000000000008152600401611623906124a3565b60405180910390fd5b505050565b60006116528473ffffffffffffffffffffffffffffffffffffffff16611a86565b156117bb578373ffffffffffffffffffffffffffffffffffffffff1663150b7a0261167b610d2f565b8786866040518563ffffffff1660e01b815260040161169d949392919061241a565b602060405180830381600087803b1580156116b757600080fd5b505af19250505080156116e857506040513d601f19601f820116820180604052508101906116e59190612002565b60015b61176b573d8060008114611718576040519150601f19603f3d011682016040523d82523d6000602084013e61171d565b606091505b50600081511415611763576040517f08c379a000000000000000000000000000000000000000000000000000000000815260040161175a906124a3565b60405180910390fd5b805181602001fd5b63150b7a0260e01b7bffffffffffffffffffffffffffffffffffffffffffffffffffffffff1916817bffffffffffffffffffffffffffffffffffffffffffffffffffffffff1916149150506117c0565b600190505b949350505050565b60606040518060400160405280601d81526020017f68747470733a2f2f6a736f6e6b65657065722e636f6d2f622f314b5634000000815250905090565b606061181082610cc3565b61184f576040517f08c379a000000000000000000000000000000000000000000000000000000000815260040161184690612683565b60405180910390fd5b60006118596117c8565b9050600081511161187957604051806020016040528060008152506118a4565b8061188384611aa9565b6040516020016118949291906123db565b6040516020818303038152906040525b915050919050565b600073ffffffffffffffffffffffffffffffffffffffff168273ffffffffffffffffffffffffffffffffffffffff16141561191c576040517f08c379a000000000000000000000000000000000000000000000000000000000815260040161191390612603565b60405180910390fd5b61192581610cc3565b15611965576040517f08c379a000000000000000000000000000000000000000000000000000000000815260040161195c90612503565b60405180910390fd5b611971600083836115cc565b6001600360008473ffffffffffffffffffffffffffffffffffffffff1673ffffffffffffffffffffffffffffffffffffffff16815260200190815260200160002060008282546119c191906127c8565b92505081905550816002600083815260200190815260200160002060006101000a81548173ffffffffffffffffffffffffffffffffffffffff021916908373ffffffffffffffffffffffffffffffffffffffff160217905550808273ffffffffffffffffffffffffffffffffffffffff16600073ffffffffffffffffffffffffffffffffffffffff167fddf252ad1be2c89b69c2b068fc378daa952ba7f163c4a11628f55a4df523b3ef60405160405180910390a4611a82600083836115d1565b5050565b6000808273ffffffffffffffffffffffffffffffffffffffff163b119050919050565b60606000821415611af1576040518060400160405280600181526020017f30000000000000000000000000000000000000000000000000000000000000008152509050611c51565b600082905060005b60008214611b23578080611b0c9061299c565b915050600a82611b1c919061281e565b9150611af9565b60008167ffffffffffffffff811115611b65577f4e487b7100000000000000000000000000000000000000000000000000000000600052604160045260246000fd5b6040519080825280601f01601f191660200182016040528015611b975781602001600182028036833780820191505090505b5090505b60008514611c4a57600182611bb0919061284f565b9150600a85611bbf91906129e5565b6030611bcb91906127c8565b60f81b818381518110611c07577f4e487b7100000000000000000000000000000000000000000000000000000000600052603260045260246000fd5b60200101907effffffffffffffffffffffffffffffffffffffffffffffffffffffffffffff1916908160001a905350600a85611c43919061281e565b9450611b9b565b8093505050505b919050565b828054611c6290612939565b90600052602060002090601f016020900481019282611c845760008555611ccb565b82601f10611c9d57805160ff1916838001178555611ccb565b82800160010185558215611ccb579182015b82811115611cca578251825591602001919060010190611caf565b5b509050611cd89190611cdc565b5090565b5b80821115611cf5576000816000905550600101611cdd565b5090565b6000611d0c611d0784612723565b6126fe565b905082815260208101848484011115611d2457600080fd5b611d2f8482856128f7565b509392505050565b6000611d4a611d4584612754565b6126fe565b905082815260208101848484011115611d6257600080fd5b611d6d8482856128f7565b509392505050565b600081359050611d8481612fd9565b92915050565b600081359050611d9981612ff0565b92915050565b600081359050611dae81613007565b92915050565b600081519050611dc381613007565b92915050565b600082601f830112611dda57600080fd5b8135611dea848260208601611cf9565b91505092915050565b600082601f830112611e0457600080fd5b8135611e14848260208601611d37565b91505092915050565b600081359050611e2c8161301e565b92915050565b600060208284031215611e4457600080fd5b6000611e5284828501611d75565b91505092915050565b60008060408385031215611e6e57600080fd5b6000611e7c85828601611d75565b9250506020611e8d85828601611d75565b9150509250929050565b600080600060608486031215611eac57600080fd5b6000611eba86828701611d75565b9350506020611ecb86828701611d75565b9250506040611edc86828701611e1d565b9150509250925092565b60008060008060808587031215611efc57600080fd5b6000611f0a87828801611d75565b9450506020611f1b87828801611d75565b9350506040611f2c87828801611e1d565b925050606085013567ffffffffffffffff811115611f4957600080fd5b611f5587828801611dc9565b91505092959194509250565b60008060408385031215611f7457600080fd5b6000611f8285828601611d75565b9250506020611f9385828601611d8a565b9150509250929050565b60008060408385031215611fb057600080fd5b6000611fbe85828601611d75565b9250506020611fcf85828601611e1d565b9150509250929050565b600060208284031215611feb57600080fd5b6000611ff984828501611d9f565b91505092915050565b60006020828403121561201457600080fd5b600061202284828501611db4565b91505092915050565b60006020828403121561203d57600080fd5b600082013567ffffffffffffffff81111561205757600080fd5b61206384828501611df3565b91505092915050565b60006020828403121561207e57600080fd5b600061208c84828501611e1d565b91505092915050565b61209e81612883565b82525050565b6120ad81612895565b82525050565b60006120be82612785565b6120c8818561279b565b93506120d8818560208601612906565b6120e181612ad2565b840191505092915050565b60006120f782612790565b61210181856127ac565b9350612111818560208601612906565b61211a81612ad2565b840191505092915050565b600061213082612790565b61213a81856127bd565b935061214a818560208601612906565b80840191505092915050565b60006121636032836127ac565b915061216e82612ae3565b604082019050919050565b60006121866026836127ac565b915061219182612b32565b604082019050919050565b60006121a96025836127ac565b91506121b482612b81565b604082019050919050565b60006121cc601c836127ac565b91506121d782612bd0565b602082019050919050565b60006121ef6024836127ac565b91506121fa82612bf9565b604082019050919050565b60006122126019836127ac565b915061221d82612c48565b602082019050919050565b6000612235602c836127ac565b915061224082612c71565b604082019050919050565b60006122586038836127ac565b915061226382612cc0565b604082019050919050565b600061227b602a836127ac565b915061228682612d0f565b604082019050919050565b600061229e6029836127ac565b91506122a982612d5e565b604082019050919050565b60006122c1602e836127ac565b91506122cc82612dad565b604082019050919050565b60006122e46020836127ac565b91506122ef82612dfc565b602082019050919050565b60006123076031836127ac565b915061231282612e25565b604082019050919050565b600061232a602c836127ac565b915061233582612e74565b604082019050919050565b600061234d6020836127ac565b915061235882612ec3565b602082019050919050565b6000612370602f836127ac565b915061237b82612eec565b604082019050919050565b60006123936021836127ac565b915061239e82612f3b565b604082019050919050565b60006123b66031836127ac565b91506123c182612f8a565b604082019050919050565b6123d5816128ed565b82525050565b60006123e78285612125565b91506123f38284612125565b91508190509392505050565b60006020820190506124146000830184612095565b92915050565b600060808201905061242f6000830187612095565b61243c6020830186612095565b61244960408301856123cc565b818103606083015261245b81846120b3565b905095945050505050565b600060208201905061247b60008301846120a4565b92915050565b6000602082019050818103600083015261249b81846120ec565b905092915050565b600060208201905081810360008301526124bc81612156565b9050919050565b600060208201905081810360008301526124dc81612179565b9050919050565b600060208201905081810360008301526124fc8161219c565b9050919050565b6000602082019050818103600083015261251c816121bf565b9050919050565b6000602082019050818103600083015261253c816121e2565b9050919050565b6000602082019050818103600083015261255c81612205565b9050919050565b6000602082019050818103600083015261257c81612228565b9050919050565b6000602082019050818103600083015261259c8161224b565b9050919050565b600060208201905081810360008301526125bc8161226e565b9050919050565b600060208201905081810360008301526125dc81612291565b9050919050565b600060208201905081810360008301526125fc816122b4565b9050919050565b6000602082019050818103600083015261261c816122d7565b9050919050565b6000602082019050818103600083015261263c816122fa565b9050919050565b6000602082019050818103600083015261265c8161231d565b9050919050565b6000602082019050818103600083015261267c81612340565b9050919050565b6000602082019050818103600083015261269c81612363565b9050919050565b600060208201905081810360008301526126bc81612386565b9050919050565b600060208201905081810360008301526126dc816123a9565b9050919050565b60006020820190506126f860008301846123cc565b92915050565b6000612708612719565b9050612714828261296b565b919050565b6000604051905090565b600067ffffffffffffffff82111561273e5761273d612aa3565b5b61274782612ad2565b9050602081019050919050565b600067ffffffffffffffff82111561276f5761276e612aa3565b5b61277882612ad2565b9050602081019050919050565b600081519050919050565b600081519050919050565b600082825260208201905092915050565b600082825260208201905092915050565b600081905092915050565b60006127d3826128ed565b91506127de836128ed565b9250827fffffffffffffffffffffffffffffffffffffffffffffffffffffffffffffffff0382111561281357612812612a16565b5b828201905092915050565b6000612829826128ed565b9150612834836128ed565b92508261284457612843612a45565b5b828204905092915050565b600061285a826128ed565b9150612865836128ed565b92508282101561287857612877612a16565b5b828203905092915050565b600061288e826128cd565b9050919050565b60008115159050919050565b60007fffffffff0000000000000000000000000000000000000000000000000000000082169050919050565b600073ffffffffffffffffffffffffffffffffffffffff82169050919050565b6000819050919050565b82818337600083830152505050565b60005b83811015612924578082015181840152602081019050612909565b83811115612933576000848401525b50505050565b6000600282049050600182168061295157607f821691505b6020821081141561296557612964612a74565b5b50919050565b61297482612ad2565b810181811067ffffffffffffffff8211171561299357612992612aa3565b5b80604052505050565b60006129a7826128ed565b91507fffffffffffffffffffffffffffffffffffffffffffffffffffffffffffffffff8214156129da576129d9612a16565b5b600182019050919050565b60006129f0826128ed565b91506129fb836128ed565b925082612a0b57612a0a612a45565b5b828206905092915050565b7f4e487b7100000000000000000000000000000000000000000000000000000000600052601160045260246000fd5b7f4e487b7100000000000000000000000000000000000000000000000000000000600052601260045260246000fd5b7f4e487b7100000000000000000000000000000000000000000000000000000000600052602260045260246000fd5b7f4e487b7100000000000000000000000000000000000000000000000000000000600052604160045260246000fd5b6000601f19601f8301169050919050565b7f4552433732313a207472616e7366657220746f206e6f6e20455243373231526560008201527f63656976657220696d706c656d656e7465720000000000000000000000000000602082015250565b7f4f776e61626c653a206e6577206f776e657220697320746865207a65726f206160008201527f6464726573730000000000000000000000000000000000000000000000000000602082015250565b7f4552433732313a207472616e736665722066726f6d20696e636f72726563742060008201527f6f776e6572000000000000000000000000000000000000000000000000000000602082015250565b7f4552433732313a20746f6b656e20616c7265616479206d696e74656400000000600082015250565b7f4552433732313a207472616e7366657220746f20746865207a65726f2061646460008201527f7265737300000000000000000000000000000000000000000000000000000000602082015250565b7f4552433732313a20617070726f766520746f2063616c6c657200000000000000600082015250565b7f4552433732313a206f70657261746f7220717565727920666f72206e6f6e657860008201527f697374656e7420746f6b656e0000000000000000000000000000000000000000602082015250565b7f4552433732313a20617070726f76652063616c6c6572206973206e6f74206f7760008201527f6e6572206e6f7220617070726f76656420666f7220616c6c0000000000000000602082015250565b7f4552433732313a2062616c616e636520717565727920666f7220746865207a6560008201527f726f206164647265737300000000000000000000000000000000000000000000602082015250565b7f4552433732313a206f776e657220717565727920666f72206e6f6e657869737460008201527f656e7420746f6b656e0000000000000000000000000000000000000000000000602082015250565b7f45524337323155524953746f726167653a2055524920736574206f66206e6f6e60008201527f6578697374656e7420746f6b656e000000000000000000000000000000000000602082015250565b7f4552433732313a206d696e7420746f20746865207a65726f2061646472657373600082015250565b7f45524337323155524953746f726167653a2055524920717565727920666f722060008201527f6e6f6e6578697374656e7420746f6b656e000000000000000000000000000000602082015250565b7f4552433732313a20617070726f76656420717565727920666f72206e6f6e657860008201527f697374656e7420746f6b656e0000000000000000000000000000000000000000602082015250565b7f4f776e61626c653a2063616c6c6572206973206e6f7420746865206f776e6572600082015250565b7f4552433732314d657461646174613a2055524920717565727920666f72206e6f60008201527f6e6578697374656e7420746f6b656e0000000000000000000000000000000000602082015250565b7f4552433732313a20617070726f76616c20746f2063757272656e74206f776e6560008201527f7200000000000000000000000000000000000000000000000000000000000000602082015250565b7f4552433732313a207472616e736665722063616c6c6572206973206e6f74206f60008201527f776e6572206e6f7220617070726f766564000000000000000000000000000000602082015250565b612fe281612883565b8114612fed57600080fd5b50565b612ff981612895565b811461300457600080fd5b50565b613010816128a1565b811461301b57600080fd5b50565b613027816128ed565b811461303257600080fd5b5056fea2646970667358221220450bd9f05e1a6bdc9008956ae15c0f080bc9bd12bb255060b77ee11bf083d2fd64736f6c63430008040033",
    "linkReferences": {},
    "deployedLinkReferences": {}
}